CC19302555188CCORPORACION EDUCATIVA COLEGIO MARIANISTA20220304000000748000000027908000A000000                                                                                                                                                             
DD1930255518800000062664370ACHIRI LLANOS THIRZA CAMILA             PMARZO                        2022030420220331000000000038000000000000000000000000000A00000000000042328134                                                                             
DD1930255518800000078638628ACORI PUMALLIHUA DANA VALERIA           PMARZO                        2022030420220331000000000038000000000000000000000000000A00000000000042676281                                                                             
DD1930255518800000078682220ACOSTA ACOSTA ANGELA MARIANA            PMARZO                        2022030420220331000000000038000000000000000000000000000A00000000000076738024                                                                             
DD1930255518800000081819637ACOSTA CHAPONAN ESTEBAN MANUEL          PMARZO                        2022030420220331000000000035000000000000000000000000000A00000000000045085779                                                                             
DD1930255518800000076994084ACOSTA CHIRINOS MATIAS ADRIAN           PMARZO                        2022030420220331000000000038000000000000000000000000000A00000000000040328989                                                                             
DD1930255518800000077847219ACOSTA CUYA LUI FABIANO GERARD          PMARZO                        2022030420220331000000000038000000000000000000000000000A00000000000045476329                                                                             
DD1930255518800000079138651ACOSTA CUYA SANTHINO MANUEL             PMARZO                        2022030420220331000000000038000000000000000000000000000A00000000000045476329                                                                             
DD1930255518800000062433373ACOSTA GUZMAN ALMENDRA ZAHORI           PMARZO                        2022030420220331000000000038000000000000000000000000000A00000000000009722219                                                                             
DD1930255518800000077986876ACOSTA HUAMAN LUCIANA YAMILY            PMARZO                        2022030420220331000000000038000000000000000000000000000A00000000000041862886                                                                             
DD1930255518800000079309842ACUNA CARRIZALES MAXIMILIANO NICOLAS    PMARZO                        2022030420220331000000000038000000000000000000000000000A00000000000010085295                                                                             
DD1930255518800000077452222AGUILAR GARCIA SHAMIRA MASSIEL KAORI    PMARZO                        2022030420220331000000000038000000000000000000000000000A00000000000043067114                                                                             
DD1930255518800000077834315AGUILAR TORREZ NICOLAS GIOVANNI         PMARZO                        2022030420220331000000000038000000000000000000000000000A00000000000010090748                                                                             
DD1930255518800000077313171AGUIRRE RIMACHE LUANA MYRELLA           PMARZO                        2022030420220331000000000038000000000000000000000000000A00000000000044516116                                                                             
DD1930255518800000090482769ALARCON ALZAMORA ENZO GAEL              PMARZO                        2022030420220331000000000035000000000000000000000000000A00000000000043686396                                                                             
DD1930255518800000078708228ALARCON ALZAMORA PATRICK MARIANO        PMARZO                        2022030420220331000000000038000000000000000000000000000A00000000000043686396                                                                             
DD1930255518800000078783123ALARCON ARIAS ALESSIA                   PMARZO                        2022030420220331000000000038000000000000000000000000000A00000000000045577545                                                                             
DD1930255518800000077943168ALARCON BARRERA ANGIE MARYORI           PMARZO                        2022030420220331000000000038000000000000000000000000000A00000000000042624273                                                                             
DD1930255518800000079089342ALARCON TORRES GONZALO NICOLAS          PMARZO                        2022030420220331000000000038000000000000000000000000000A00000000000040487011                                                                             
DD1930255518800000077451880ALARCON TORRES PIERO ALESSANDRO         PMARZO                        2022030420220331000000000038000000000000000000000000000A00000000000040487011                                                                             
DD1930255518800000081242176ALARCON VALLE ALEXIA ARIANNA            PMARZO                        2022030420220331000000000038000000000000000000000000000A00000000000046642288                                                                             
DD1930255518800000078087086ALCOCER TEJADA NICOLAS ALEXANDRE        PMARZO                        2022030420220331000000000038000000000000000000000000000A00000000000041812692                                                                             
DD1930255518800000090648336ALCOCER TEJADA OHANA SOPHIA             PMARZO                        2022030420220331000000000035000000000000000000000000000A00000000000041812692                                                                             
DD1930255518800000078660248ALEGRE JARA GREACE MARILYN              PMARZO                        2022030420220331000000000038000000000000000000000000000A00000000000041483566                                                                             
DD1930255518800000074339143ALFARO TOMAS ALESSANDRO DEL PIERO       PMARZO                        2022030420220331000000000038000000000000000000000000000A00000000000042833476                                                                             
DD1930255518800000074327450ALLCA AREVALO ARTURO CRISTOPHER         PMARZO                        2022030420220331000000000038000000000000000000000000000A00000000000009708858                                                                             
DD1930255518800000090416320ALLER PUMALLIHUA ADRIAN ADUARDO         PMARZO                        2022030420220331000000000035000000000000000000000000000A00000000000010078962                                                                             
DD1930255518800000078328252ALMONACID PAREDES ZIANNY MARIA          PMARZO                        2022030420220331000000000038000000000000000000000000000A00000000000040012096                                                                             
DD1930255518800000081706838ALVARADO FAUSTOR JASMINNE ZAFIRO        PMARZO                        2022030420220331000000000035000000000000000000000000000A00000000000045130951                                                                             
DD1930255518800000079384135ALVARADO GUTIERREZ DOMINICK CESAR       PMARZO                        2022030420220331000000000038000000000000000000000000000A00000000000047470560                                                                             
DD1930255518800000078669570ALVARADO GUTIERREZ HANSEL IKER          PMARZO                        2022030420220331000000000038000000000000000000000000000A00000000000047470560                                                                             
DD1930255518800000079566348ALVAREZ VICENTE KAMILA NICOLE           PMARZO                        2022030420220331000000000038000000000000000000000000000A00000000000045504158                                                                             
DD1930255518800000079371365ALZUGARAY BELLIDO ALESSANDRA GAELA      PMARZO                        2022030420220331000000000038000000000000000000000000000A00000000000076381857                                                                             
DD1930255518800000063306258AMAYA AGUILAR NICOLAS GIUSSEPPE         PMARZO                        2022030420220331000000000038000000000000000000000000000A00000000000041655387                                                                             
DD1930255518800000078413121ANAMPA CONTRERAS ARIANA PAOLA           PMARZO                        2022030420220331000000000038000000000000000000000000000A00000000000042021264                                                                             
DD1930255518800000079687240ANDRADE PORTILLO ZOE VALENTINA          PMARZO                        2022030420220331000000000035000000000000000000000000000A00000000000070352805                                                                             
DD1930255518800000081816424ANDRADE SANCHEZ EITHON AARON MATEO      PMARZO                        2022030420220331000000000035000000000000000000000000000A00000000000040454860                                                                             
DD1930255518800000074196229ANDRADE SANCHEZ NICOLE ABIGAIL          PMARZO                        2022030420220331000000000038000000000000000000000000000A00000000000040454860                                                                             
DD1930255518800000081702870ANTIALON CONDORI FERNANDA SOFIA SABRINA PMARZO                        2022030420220331000000000035000000000000000000000000000A00000000000040328812                                                                             
DD1930255518800000063306594ARANGOITIA MALCA GABRIEL SAMIR          PMARZO                        2022030420220331000000000038000000000000000000000000000A00000000000041935080                                                                             
DD1930255518800000090348316ARANGOITIA MALCA KATHERINE LUCIANA      PMARZO                        2022030420220331000000000035000000000000000000000000000A00000000000041935080                                                                             
DD1930255518800000062705181ARCE VALERA DANA JIMENA                 PMARZO                        2022030420220331000000000038000000000000000000000000000A00000000000040000225                                                                             
DD1930255518800000062664978AREVALO CHANCAFE SOFIA DANIELA          PMARZO                        2022030420220331000000000038000000000000000000000000000A00000000000041481404                                                                             
DD1930255518800000079538644AREVALO SUAREZ STEFANO KALED            PMARZO                        2022030420220331000000000038000000000000000000000000000A00000000000071836267                                                                             
DD1930255518800000078027292ARIAS COCHACHI NAYELI JAEL              PMARZO                        2022030420220331000000000038000000000000000000000000000A00000000000010087397                                                                             
DD1930255518800000078684129ARIAS CRUZ LUCIANA VALESKA              PMARZO                        2022030420220331000000000038000000000000000000000000000A00000000000040955773                                                                             
DD1930255518800000079083678AROHILLCA BELTRAN ANA LUNA SOFIA        PMARZO                        2022030420220331000000000038000000000000000000000000000A00000000000071463499                                                                             
DD1930255518800000074345121ARREDONDO VASQUEZ MIGUEL ANGEL          PMARZO                        2022030420220331000000000038000000000000000000000000000A00000000000010082218                                                                             
DD1930255518800000079395543ARROYO PAREJA MIA AYSE                  PMARZO                        2022030420220331000000000038000000000000000000000000000A00000000000077467600                                                                             
DD1930255518800000074333845ARTEAGA SALAZAR KIARA NAYELI            PMARZO                        2022030420220331000000000038000000000000000000000000000A00000000000044576917                                                                             
DD1930255518800000078242958ASTORAY LUYO ARIELY ZOHAR COLETE        PMARZO                        2022030420220331000000000038000000000000000000000000000A00000000000010524752                                                                             
DD1930255518800000079246393ATAUPILLCO SALAS MAXIMO RAUL FERNANDO   PMARZO                        2022030420220331000000000038000000000000000000000000000A00000000000042664458                                                                             
DD1930255518800000062712430ATAUPILLCO SALAS VALERIA YOLANDA        PMARZO                        2022030420220331000000000038000000000000000000000000000A00000000000042664458                                                                             
DD1930255518800000090558900ATAYUPANQUI CARDOZO IVANA VICTORIA      PMARZO                        2022030420220331000000000035000000000000000000000000000A00000000000010083375                                                                             
DD1930255518800000078498295AUQUI HERRERA MAYTE ZAORY               PMARZO                        2022030420220331000000000038000000000000000000000000000A00000000000041869836                                                                             
DD1930255518800000078669585AVALOS AVILA MATIAS SAMUEL              PMARZO                        2022030420220331000000000038000000000000000000000000000A00000000000040694261                                                                             
DD1930255518800000077308873AVALOS SOLIS KALEF MAX                  PMARZO                        2022030420220331000000000038000000000000000000000000000A00000000000010093088                                                                             
DD1930255518800000079567738AVENDANO CAPCHA FLAVIA GAELA            PMARZO                        2022030420220331000000000038000000000000000000000000000A00000000000071504875                                                                             
DD1930255518800000081816731AVILA VARGAS MIA GAELA                  PMARZO                        2022030420220331000000000035000000000000000000000000000A00000000000071419093                                                                             
DD1930255518800000075647621AVILA ZAMORA JIMENA LUCIANA             PMARZO                        2022030420220331000000000038000000000000000000000000000A00000000000009722673                                                                             
DD1930255518800000077719702AYALA CAHUAPAZA JOAQUIN GONZALO         PMARZO                        2022030420220331000000000038000000000000000000000000000A00000000000007618552                                                                             
DD1930255518800000077625061AYSA OCHOA JUAN MANUEL                  PMARZO                        2022030420220331000000000038000000000000000000000000000A00000000000042176714                                                                             
DD1930255518800000078060476BACA VALDEZ THIAGO KALEP                PMARZO                        2022030420220331000000000038000000000000000000000000000A00000000000010641680                                                                             
DD1930255518800000079064672BALBIN CASTILLO OLENKA FRANCESCA        PMARZO                        2022030420220331000000000038000000000000000000000000000A00000000000073772462                                                                             
DD1930255518800000077459183BALBUENA RAMOS ANDRE SEBASTIAN          PMARZO                        2022030420220331000000000038000000000000000000000000000A00000000000007307470                                                                             
DD1930255518800000077964066BALLON MUNOZ KATINA MILAGROS            PMARZO                        2022030420220331000000000038000000000000000000000000000A00000000000070733135                                                                             
DD1930255518800000079753771BALTODANO MEDINA ALESSIA PAULA          PMARZO                        2022030420220331000000000035000000000000000000000000000A00000000000045513553                                                                             
DD1930255518800000090574807BALTODANO MEDINA FLAVIA PAZ             PMARZO                        2022030420220331000000000035000000000000000000000000000A00000000000045513553                                                                             
DD1930255518800000078637667BAMBERGER MUNIZ ETHAN HANZ              PMARZO                        2022030420220331000000000038000000000000000000000000000A00000000000045219275                                                                             
DD1930255518800000077883619BAMBERGER MUNIZ JENKO RAZZETT           PMARZO                        2022030420220331000000000038000000000000000000000000000A00000000000045219275                                                                             
DD1930255518800000079457300BARRERA CUEVA THIAGO VALENTINO          PMARZO                        2022030420220331000000000038000000000000000000000000000A00000000000010094891                                                                             
DD1930255518800000079411897BARRETO ALMEYDA ALESSANDRO JHAEL        PMARZO                        2022030420220331000000000038000000000000000000000000000A00000000000072634591                                                                             
DD1930255518800000078029535BAUTISTA HUAMAN ALDAIR                  PMARZO                        2022030420220331000000000038000000000000000000000000000A00000000000010087024                                                                             
DD1930255518800000077880863BAUTISTA JIHUALLANCA EYMI KIOSHY        PMARZO                        2022030420220331000000000038000000000000000000000000000A00000000000044390770                                                                             
DD1930255518800000077561550BAZAN LERMO GABRIELA VALENTINA          PMARZO                        2022030420220331000000000038000000000000000000000000000A00000000000046371469                                                                             
DD1930255518800000090025391BAZAN SALGADO BRIANA DANAE              PMARZO                        2022030420220331000000000035000000000000000000000000000A00000000000046210890                                                                             
DD1930255518800000077722058BAZAN SALGADO NICOLAS MATEO             PMARZO                        2022030420220331000000000038000000000000000000000000000A00000000000046210890                                                                             
DD1930255518800000078127594BAZUL VALENZUELA ALESSANDRO DEL PIERO   PMARZO                        2022030420220331000000000038000000000000000000000000000A00000000000010088459                                                                             
DD1930255518800000090741449BECERRA OCHOA MATEO ANDRE               PMARZO                        2022030420220331000000000035000000000000000000000000000A00000000000043724436                                                                             
DD1930255518800000079973976BECERRA OCHOA PIERO ANDRE               PMARZO                        2022030420220331000000000035000000000000000000000000000A00000000000043724436                                                                             
DD1930255518800000090559775BECERRA SIFUENTES MATIAS PAUL           PMARZO                        2022030420220331000000000035000000000000000000000000000A00000000000042105826                                                                             
DD1930255518800000090058997BECERRA SIFUENTES VINCENZO GABRIEL      PMARZO                        2022030420220331000000000035000000000000000000000000000A00000000000042105826                                                                             
DD1930255518800000078213131BEDREGAL CARRASCO SAMIR GAEL            PMARZO                        2022030420220331000000000038000000000000000000000000000A00000000000042334750                                                                             
DD1930255518800000079759348BEJAR ALMIRON ADRIAN STEFFANO           PMARZO                        2022030420220331000000000035000000000000000000000000000A00000000000045940478                                                                             
DD1930255518800000074509253BEJAR ESCALANTE JORGE MATEO             PMARZO                        2022030420220331000000000038000000000000000000000000000A00000000000010486941                                                                             
DD1930255518800000078520837BEJAR VILLEGAS VANIA ALEJANDRA          PMARZO                        2022030420220331000000000038000000000000000000000000000A00000000000010023612                                                                             
DD1930255518800000075634352BELLIDO SULCA SEBASTIAN JAIRO           PMARZO                        2022030420220331000000000038000000000000000000000000000A00000000000044519876                                                                             
DD1930255518800000077010368BELLO ROMERO LUANA DANIELLA             PMARZO                        2022030420220331000000000038000000000000000000000000000A00000000000042421285                                                                             
DD1930255518800000079178941BENDEZU TORRES IAN MATIAS               PMARZO                        2022030420220331000000000038000000000000000000000000000A00000000000043146939                                                                             
DD1930255518800000078419401BOHORQUEZ ARAUJO FERNANDA VALENTINA     PMARZO                        2022030420220331000000000038000000000000000000000000000A00000000000047216532                                                                             
DD1930255518800000078909469BOLIVAR GUERRERO BRUNO MARC             PMARZO                        2022030420220331000000000038000000000000000000000000000A00000000000010085127                                                                             
DD1930255518800000081202569BOLIVAR GUERRERO MIRANDA XIOMARA        PMARZO                        2022030420220331000000000038000000000000000000000000000A00000000000010085127                                                                             
DD1930255518800000079374735BRICENO MALCA AZARENKA LUCIANNA         PMARZO                        2022030420220331000000000038000000000000000000000000000A00000000000042785169                                                                             
DD1930255518800000077651110BUENO AVELINO DOMENICA LUNA             PMARZO                        2022030420220331000000000038000000000000000000000000000A00000000000040682551                                                                             
DD1930255518800000078479567BUENO AVELINO FATIMA PAZ                PMARZO                        2022030420220331000000000038000000000000000000000000000A00000000000040682551                                                                             
DD1930255518800000090749137BUSTAMANTE HUAROC ITZEL ZAORI           PMARZO                        2022030420220331000000000035000000000000000000000000000A00000000000073352834                                                                             
DD1930255518800000079954253CABALLERO ROMERO LUCIANA SOFIA          PMARZO                        2022030420220331000000000035000000000000000000000000000A00000000000040424503                                                                             
DD1930255518800000078701001CABALLERO ROMERO RICARDO MILAN          PMARZO                        2022030420220331000000000038000000000000000000000000000A00000000000040424503                                                                             
DD1930255518800000090910604CABELLO FIGUEROA ABDIEL BIXS            PMARZO                        2022030420220331000000000035000000000000000000000000000A00000000000077045998                                                                             
DD1930255518800000063502018CABRERA MUNANTE MARIANNA LUCIANA        PMARZO                        2022030420220331000000000038000000000000000000000000000A00000000000045322119                                                                             
DD1930255518800000077525831CABRERA TORRES RODRIGO FABRICIO         PMARZO                        2022030420220331000000000038000000000000000000000000000A00000000000007872513                                                                             
DD1930255518800000078327736CACERES FLORES GONZALO ANDRE            PMARZO                        2022030420220331000000000038000000000000000000000000000A00000000000010036223                                                                             
DD1930255518800000078449507CAHUANA YARANGA DANNA PAOLA             PMARZO                        2022030420220331000000000038000000000000000000000000000A00000000000041722166                                                                             
DD1930255518800000075296695CAHUANA YARANGA NAYELI YAZURI           PMARZO                        2022030420220331000000000038000000000000000000000000000A00000000000041722166                                                                             
DD1930255518800000063502101CAHUAPAZA TITO DEYNA TAIS               PMARZO                        2022030420220331000000000038000000000000000000000000000A00000000000040333385                                                                             
DD1930255518800000063083306CALCINA FERREL XIMENA LUHANA            PMARZO                        2022030420220331000000000038000000000000000000000000000A00000000000042971788                                                                             
DD1930255518800000075297836CALDERON MATTA ANGELO SAIR              PMARZO                        2022030420220331000000000038000000000000000000000000000A00000000000043859865                                                                             
DD1930255518800000091130485CALDERON NUNEZ JORDAN ITZAEL            PMARZO                        2022030420220331000000000035000000000000000000000000000A00000000000046587470                                                                             
DD1930255518800000077635986CALLA CALLA AITANA CAMILA               PMARZO                        2022030420220331000000000038000000000000000000000000000A00000000000041106579                                                                             
DD1930255518800000077594103CALLUPE TIRADO JESUS ADRIAN             PMARZO                        2022030420220331000000000038000000000000000000000000000A00000000000040192485                                                                             
DD1930255518800000078972948CALLUPE TIRADO JUAN PABLO               PMARZO                        2022030420220331000000000038000000000000000000000000000A00000000000040192485                                                                             
DD1930255518800000090344222CAMARENA DEL CASTILLO ANTONELA MIRELLA  PMARZO                        2022030420220331000000000035000000000000000000000000000A00000000000020594561                                                                             
DD1930255518800000062601437CAMARENA URQUIZA MARIA FERNANDA         PMARZO                        2022030420220331000000000038000000000000000000000000000A00000000000044112730                                                                             
DD1930255518800000077194922CAMAYO PORTOCARRERO JUAN DIEGO          PMARZO                        2022030420220331000000000038000000000000000000000000000A00000000000010082224                                                                             
DD1930255518800000078578075CAMERO CCOYLLO PATRICK RUBEN            PMARZO                        2022030420220331000000000038000000000000000000000000000A00000000000044299426                                                                             
DD1930255518800000078396161CAMPANA SULCA JOSHUA MANUEL             PMARZO                        2022030420220331000000000038000000000000000000000000000A00000000000040899310                                                                             
DD1930255518800000079522013CAMPANA SULCA MARGAERY TRIANA           PMARZO                        2022030420220331000000000038000000000000000000000000000A00000000000040899310                                                                             
DD1930255518800000007907329CAMPOS GONZALES LIAM JOAQUIN            PMARZO                        2022030420220331000000000038000000000000000000000000000A00000000000041340081                                                                             
DD1930255518800000062769550CANALES MOTTA LEANDRO BENJAMIN          PMARZO                        2022030420220331000000000038000000000000000000000000000A00000000000044322592                                                                             
DD1930255518800000090036473CANALES MOTTA SAMIR ELVIS               PMARZO                        2022030420220331000000000035000000000000000000000000000A00000000000041586362                                                                             
DD1930255518800000063502141CANALES QUISPE NICOLA VALENTINO         PMARZO                        2022030420220331000000000038000000000000000000000000000A00000000000041628064                                                                             
DD1930255518800000063306159CANALES ZUNIGA SALVADOR JAFET           PMARZO                        2022030420220331000000000038000000000000000000000000000A00000000000044920059                                                                             
DD1930255518800000079002991CANAMERO CONDORI SASKIA BRITLLI         PMARZO                        2022030420220331000000000038000000000000000000000000000A00000000000044899507                                                                             
DD1930255518800000090399855CANTENO RAMOS ANDRE LUCIANO             PMARZO                        2022030420220331000000000035000000000000000000000000000A00000000000042142286                                                                             
DD1930255518800000079305821CARDOZA VILLAFUERTE GIA LUCIANA         PMARZO                        2022030420220331000000000038000000000000000000000000000A00000000000047516316                                                                             
DD1930255518800000077886718CARDOZO CHUMPITAZ IZMAILOV XAVI NICOLA  PMARZO                        2022030420220331000000000038000000000000000000000000000A00000000000047818226                                                                             
DD1930255518800000077839400CARHUAS GAMARRA CRISTOPHER ALFREDO      PMARZO                        2022030420220331000000000038000000000000000000000000000A00000000000041433393                                                                             
DD1930255518800000081653610CARMONA SALAZAR ELIAM ADRIEL            PMARZO                        2022030420220331000000000038000000000000000000000000000A00000000000048255015                                                                             
DD1930255518800000077193454CARRANZA LY CAMILA GISSELLE             PMARZO                        2022030420220331000000000038000000000000000000000000000A00000000000042242444                                                                             
DD1930255518800000091060508CARRASCO FERNANDEZ ANDREI MARCELO       PMARZO                        2022030420220331000000000035000000000000000000000000000A00000000000043090296                                                                             
DD1930255518800000076897962CARRASCO VILLEGAS ANAHI AROA DAMARIS    PMARZO                        2022030420220331000000000038000000000000000000000000000A00000000000042449555                                                                             
DD1930255518800000077750115CARRENO RAMOS GUSTAVO JOHAO             PMARZO                        2022030420220331000000000038000000000000000000000000000A00000000000040407900                                                                             
DD1930255518800000078823337CASAS QUINTANA NICOLAS                  PMARZO                        2022030420220331000000000038000000000000000000000000000A00000000000046383700                                                                             
DD1930255518800000077786012CASTANEDA NAVARRO IKER ANDRE            PMARZO                        2022030420220331000000000038000000000000000000000000000A00000000000032987439                                                                             
DD1930255518800000062716573CASTILLO SOCA LUANA ROCIO               PMARZO                        2022030420220331000000000038000000000000000000000000000A00000000000040211531                                                                             
DD1930255518800000077622082CASTRO CUEVA GIAN FRANCO LEANDRO        PMARZO                        2022030420220331000000000038000000000000000000000000000A00000000000010529667                                                                             
DD1930255518800000090344203CASTRO HUARCAYA MARIAFE CAMILA          PMARZO                        2022030420220331000000000035000000000000000000000000000A00000000000010084431                                                                             
DD1930255518800000074682948CASTRO PORRAS NICOLLE ALESSANDRA        PMARZO                        2022030420220331000000000038000000000000000000000000000A00000000000044290649                                                                             
DD1930255518800000079282185CATANO CAYCHO IKER JAMES                PMARZO                        2022030420220331000000000038000000000000000000000000000A00000000000010529484                                                                             
DD1930255518800000077110447CATANO CAYCHO LESLIE ESTRELLA           PMARZO                        2022030420220331000000000038000000000000000000000000000A00000000000010529484                                                                             
DD1930255518800000077866633CAVERO SARAYASI BRIHANA ISABELLA        PMARZO                        2022030420220331000000000038000000000000000000000000000A00000000000009721407                                                                             
DD1930255518800000077866650CAVERO SARAYASI THIAGO ALESSANDRO       PMARZO                        2022030420220331000000000038000000000000000000000000000A00000000000009721407                                                                             
DD1930255518800000090817447CCORMORAY VIVAS NAHIA VALENTINA         PMARZO                        2022030420220331000000000035000000000000000000000000000A00000000000070780498                                                                             
DD1930255518800000078914690CELIS RAMOS ZOE VALERIE                 PMARZO                        2022030420220331000000000038000000000000000000000000000A00000000000040230252                                                                             
DD1930255518800000078188496CERAZO CRUZ MIKAELA FABIANA             PMARZO                        2022030420220331000000000038000000000000000000000000000A00000000000010525033                                                                             
DD1930255518800000077968978CERDAN RODRIGUEZ DAPHNE ITZEL           PMARZO                        2022030420220331000000000038000000000000000000000000000A00000000000043809935                                                                             
DD1930255518800000090291383CERDAN RODRIGUEZ GIA GAELA              PMARZO                        2022030420220331000000000038000000000000000000000000000A00000000000043809935                                                                             
DD1930255518800000078866818CERVANTES MORAN KENDHALL DRAKE          PMARZO                        2022030420220331000000000038000000000000000000000000000A00000000000071264565                                                                             
DD1930255518800000077362279CESPEDES MOGROVEJO ANHIARA MICKEYLA     PMARZO                        2022030420220331000000000038000000000000000000000000000A00000000000044744436                                                                             
DD1930255518800000079395527CHAMAYA REYES KALIE DARLINE             PMARZO                        2022030420220331000000000038000000000000000000000000000A00000000000075320387                                                                             
DD1930255518800000063720129CHANCAFE MARCOS ANDREA CELESTE          PMARZO                        2022030420220331000000000038000000000000000000000000000A00000000000042239299                                                                             
DD1930255518800000077980939CHANG QUISPE LIAN GABRIEL               PMARZO                        2022030420220331000000000038000000000000000000000000000A00000000000040011115                                                                             
DD1930255518800000090440844CHANG QUISPE XIAN JOSE                  PMARZO                        2022030420220331000000000035000000000000000000000000000A00000000000040011115                                                                             
DD1930255518800000078041467CHAUCA GARCIA SANTIAGO EDUARDO          PMARZO                        2022030420220331000000000038000000000000000000000000000A00000000000071221009                                                                             
DD1930255518800000079401287CHAVEZ BARBARAN ITHAN MATEO             PMARZO                        2022030420220331000000000038000000000000000000000000000A00000000000076560232                                                                             
DD1930255518800000090490761CHAVEZ CALDERON DALESSANDRO MAEL        PMARZO                        2022030420220331000000000035000000000000000000000000000A00000000000071314191                                                                             
DD1930255518800000077122355CHAVEZ CAMPOS ALESSANDRA GISSELL        PMARZO                        2022030420220331000000000038000000000000000000000000000A00000000000044759487                                                                             
DD1930255518800000074785440CHAVEZ DEL BUENO LUIS FERNANDO          PMARZO                        2022030420220331000000000038000000000000000000000000000A00000000000044146935                                                                             
DD1930255518800000077980320CHAVEZ PUQUIO GAELLA FABIANNE           PMARZO                        2022030420220331000000000038000000000000000000000000000A00000000000071573248                                                                             
DD1930255518800000079882758CHERO HUAMAN IKER DAVID                 PMARZO                        2022030420220331000000000035000000000000000000000000000A00000000000043819577                                                                             
DD1930255518800000081015419CHERO HUAMAN KATHERINE NICOL            PMARZO                        2022030420220331000000000038000000000000000000000000000A00000000000043819577                                                                             
DD1930255518800000062663591CHERO HUAMAN STEFANNY ANABEL            PMARZO                        2022030420220331000000000038000000000000000000000000000A00000000000043819577                                                                             
DD1930255518800000081172738CHOQUE BERMEO ALEXIA DANIELA            PMARZO                        2022030420220331000000000038000000000000000000000000000A00000000000043416827                                                                             
DD1930255518800000078982142CHOQUE BERMEO VALERY XIOMARA            PMARZO                        2022030420220331000000000038000000000000000000000000000A00000000000043416827                                                                             
DD1930255518800000078126158CHUMBIAUCA SANCHEZ CARLOS ESTEBAN       PMARZO                        2022030420220331000000000038000000000000000000000000000A00000000000040189439                                                                             
DD1930255518800000078000052CHUQUIRUNA LETONA CAMILA SOLANGE        PMARZO                        2022030420220331000000000038000000000000000000000000000A00000000000045732526                                                                             
DD1930255518800000078863980CLEMENTE MORENO LUANA YHAREL            PMARZO                        2022030420220331000000000038000000000000000000000000000A00000000000046507495                                                                             
DD1930255518800000080922241CONCEPCION GARCIA KEYRA NAOMI           PMARZO                        2022030420220331000000000038000000000000000000000000000A00000000000009262191                                                                             
DD1930255518800000078437803CONCHA SANCHEZ FERNANDA LIZET           PMARZO                        2022030420220331000000000038000000000000000000000000000A00000000000042818775                                                                             
DD1930255518800000077767141CONDORI BUSTAMANTE LEONEL               PMARZO                        2022030420220331000000000038000000000000000000000000000A00000000000042322236                                                                             
DD1930255518800000077119302CONDORI HUARCAYA ARIANA KAMILA          PMARZO                        2022030420220331000000000038000000000000000000000000000A00000000000042107747                                                                             
DD1930255518800000079320547CONGONA JARA ILLARY MICAELA             PMARZO                        2022030420220331000000000038000000000000000000000000000A00000000000041576875                                                                             
DD1930255518800000090568629CONGONA JARA NICOLAS SALVADOR           PMARZO                        2022030420220331000000000035000000000000000000000000000A00000000000041576875                                                                             
DD1930255518800000078234740CONTRERAS SALAZAR KIARA JOHANNA         PMARZO                        2022030420220331000000000038000000000000000000000000000A00000000000042168611                                                                             
DD1930255518800000062782787COPA INCIO NAOMI ANTONELLA              PMARZO                        2022030420220331000000000038000000000000000000000000000A00000000000042550608                                                                             
DD1930255518800000078819462CORDOVA FLORES CESAR ALEJANDRO          PMARZO                        2022030420220331000000000038000000000000000000000000000A00000000000009716397                                                                             
DD1930255518800000079410675CORDOVA GONZALES LUCIANA ZAMANTHA       PMARZO                        2022030420220331000000000038000000000000000000000000000A00000000000003364740                                                                             
DD1930255518800000077833081CORONEL GARATE MIA BELL                 PMARZO                        2022030420220331000000000038000000000000000000000000000A00000000000072001786                                                                             
DD1930255518800000090870481CORREA CARDENAS ENZO SEBASTIAN          PMARZO                        2022030420220331000000000035000000000000000000000000000A00000000000047981606                                                                             
DD1930255518800000062716514CORREA CASTILLO THIAGO MANUEL           PMARZO                        2022030420220331000000000038000000000000000000000000000A00000000000044408118                                                                             
DD1930255518800000090874139CORREA VARGAS ALANA ALEJANDRA           PMARZO                        2022030420220331000000000035000000000000000000000000000A00000000000045978651                                                                             
DD1930255518800000091026626CRISTOBAL SAMAN ARIANA GABRIELA         PMARZO                        2022030420220331000000000035000000000000000000000000000A00000000000042959221                                                                             
DD1930255518800000079453165CRISTOBAL SAMAN STEFANO GABRIEL         PMARZO                        2022030420220331000000000038000000000000000000000000000A00000000000042959221                                                                             
DD1930255518800000090669660CRUZ DURAN LUANA MACARENA               PMARZO                        2022030420220331000000000035000000000000000000000000000A00000000000041532513                                                                             
DD1930255518800000078181923CRUZ DURAN MAURICIO THIAGO              PMARZO                        2022030420220331000000000038000000000000000000000000000A00000000000041532513                                                                             
DD1930255518800000077645045CRUZ NUNEZ LUANASHIREL                  PMARZO                        2022030420220331000000000038000000000000000000000000000A00000000000043470518                                                                             
DD1930255518800000077931005CUBA MORALES DANNYA VALESKA             PMARZO                        2022030420220331000000000038000000000000000000000000000A00000000000041726926                                                                             
DD1930255518800000074666187CUBA MORALES LUANA VALERIA              PMARZO                        2022030420220331000000000038000000000000000000000000000A00000000000041726926                                                                             
DD1930255518800000062946544CUBAS RAMOS LUCERO FERNANDA             PMARZO                        2022030420220331000000000038000000000000000000000000000A00000000000040043495                                                                             
DD1930255518800000077399047CUBILLAS RODRIGUEZ PIERO ALESSANDRO     PMARZO                        2022030420220331000000000038000000000000000000000000000A00000000000009586820                                                                             
DD1930255518800000090035470CUELLAR HUILLCAPI ZIREL DEL CIELO       PMARZO                        2022030420220331000000000035000000000000000000000000000A00000000000041929542                                                                             
DD1930255518800000091163539CUELLAR PAMPA VALENTINA DE LOS ANGELES  PMARZO                        2022030420220331000000000035000000000000000000000000000A00000000000047420095                                                                             
DD1930255518800000078988402CUELLAR RAMOS DHARIANA AMELIE           PMARZO                        2022030420220331000000000038000000000000000000000000000A00000000000042926126                                                                             
DD1930255518800000078241498CUENCA BARRERA ALONDRA ISABEL           PMARZO                        2022030420220331000000000038000000000000000000000000000A00000000000010103877                                                                             
DD1930255518800000081551603CUENCA CUBILLAS PRINCE JOSUE            PMARZO                        2022030420220331000000000038000000000000000000000000000A00000000000043732713                                                                             
DD1930255518800000079622380CUEVA SALAZAR MIA XIOMARA               PMARZO                        2022030420220331000000000038000000000000000000000000000A00000000000043251541                                                                             
DD1930255518800000078348658CUEVAS NAVARRO VALENTINA DIOMAR         PMARZO                        2022030420220331000000000038000000000000000000000000000A00000000000070021999                                                                             
DD1930255518800000077118419CULQUICONDOR LEON ADRIANO NICOLAS       PMARZO                        2022030420220331000000000038000000000000000000000000000A00000000000009705894                                                                             
DD1930255518800000081572288CURILLA MAYAUTE MABEL ABIGAEIL          PMARZO                        2022030420220331000000000038000000000000000000000000000A00000000000041065433                                                                             
DD1930255518800000079006868DE LA CRUZ GURBILLON LIAM ABDIEL        PMARZO                        2022030420220331000000000038000000000000000000000000000A00000000000070435461                                                                             
DD1930255518800000062600793DE LA CRUZ PEREZ SEBASTIAN ALEXANDER    PMARZO                        2022030420220331000000000038000000000000000000000000000A00000000000043806486                                                                             
DD1930255518800000074262962DE LA VEGA ALVA BRAYAN ARMANDO          PMARZO                        2022030420220331000000000038000000000000000000000000000A00000000000010753094                                                                             
DD1930255518800000079205253DE LA VEGA ALVA CHRIS PATRICK           PMARZO                        2022030420220331000000000038000000000000000000000000000A00000000000042989858                                                                             
DD1930255518800000090885138DE LA VEGA ALVA MIA STEFANY             PMARZO                        2022030420220331000000000035000000000000000000000000000A00000000000010753094                                                                             
DD1930255518800000077970473DEL AGUILA ESTRADA AIXA DANIKA          PMARZO                        2022030420220331000000000038000000000000000000000000000A00000000000042433917                                                                             
DD1930255518800000077873902DEL PINO RAMOS FABIANA KAELA            PMARZO                        2022030420220331000000000038000000000000000000000000000A00000000000009531886                                                                             
DD1930255518800000081534558DEL VALLE VARGAS LUCAS BENJAMIN         PMARZO                        2022030420220331000000000035000000000000000000000000000A00000000000076965957                                                                             
DD1930255518800000077743847DELFIN SALHUANA MILENA                  PMARZO                        2022030420220331000000000038000000000000000000000000000A00000000000041768343                                                                             
DD1930255518800000078518271DELGADO FLORES NIL HAZIEL ABELINO       PMARZO                        2022030420220331000000000038000000000000000000000000000A00000000000080270775                                                                             
DD1930255518800000079989886DOMINGUEZ CUEVA DERECK ISMAEL           PMARZO                        2022030420220331000000000035000000000000000000000000000A00000000000046340974                                                                             
DD1930255518800000076899001DULANTO VALENTIN FLAVIA CAMILA          PMARZO                        2022030420220331000000000038000000000000000000000000000A00000000000007490823                                                                             
DD1930255518800000078518249DULANTO VALENTIN RENZO FABIAN           PMARZO                        2022030420220331000000000038000000000000000000000000000A00000000000007490823                                                                             
DD1930255518800000078518273DULANTO VALENTIN RODRIGO ALEJANDRO      PMARZO                        2022030420220331000000000038000000000000000000000000000A00000000000007490823                                                                             
DD1930255518800000079882109DURAND CORDERO KATALINA DEL ROSARIO     PMARZO                        2022030420220331000000000035000000000000000000000000000A00000000000010331878                                                                             
DD1930255518800000090160254ECHEVARRIA GARCIA DULCE VALENTINA       PMARZO                        2022030420220331000000000035000000000000000000000000000A00000000000046524375                                                                             
DD1930255518800000078614846ECHEVARRIA GARCIA OLESMY ORIANA SARITA  PMARZO                        2022030420220331000000000038000000000000000000000000000A00000000000046524375                                                                             
DD1930255518800000078333585ELDIZALDE ZAVALA ALIANNY VALENTINA      PMARZO                        2022030420220331000000000038000000000000000000000000000A00000000000045769336                                                                             
DD1930255518800000090806600ELDIZALDE ZAVALA GIANLUCCA TAREK        PMARZO                        2022030420220331000000000035000000000000000000000000000A00000000000045769336                                                                             
DD1930255518800000079270155ELESCANO CALDERON MIA VALENTINA         PMARZO                        2022030420220331000000000038000000000000000000000000000A00000000000040957736                                                                             
DD1930255518800000079352577ENRIQUEZ MEZA ALEXIS MAX CARLOS         PMARZO                        2022030420220331000000000038000000000000000000000000000A00000000000060596982                                                                             
DD1930255518800000008101584ERAZO FARFAN LEIA RAFAELA               PMARZO                        2022030420220331000000000038000000000000000000000000000A00000000000010527249                                                                             
DD1930255518800000090679711ESCUDERO LEGUIA DAILA ANGELI            PMARZO                        2022030420220331000000000035000000000000000000000000000A00000000000070881799                                                                             
DD1930255518800000090960421ESLAVA DURAN EMILIA VALENTINA           PMARZO                        2022030420220331000000000035000000000000000000000000000A00000000000047276349                                                                             
DD1930255518800000077401219ESPINOZA BONIFAZ DANIEL ALEXANDER       PMARZO                        2022030420220331000000000038000000000000000000000000000A00000000000042489468                                                                             
DD1930255518800000063254331ESPINOZA GOMEZ KIARA ANGELA             PMARZO                        2022030420220331000000000038000000000000000000000000000A00000000000041061569                                                                             
DD1930255518800000074197734ESPINOZA MONTALVO LUHANA FELLY          PMARZO                        2022030420220331000000000038000000000000000000000000000A00000000000043819568                                                                             
DD1930255518800000079248295ESPINOZA PORRAS EMY VALENTINA           PMARZO                        2022030420220331000000000038000000000000000000000000000A00000000000045372848                                                                             
DD1930255518800000074180612ESPINOZA TORRES JOSE DAVID              PMARZO                        2022030420220331000000000038000000000000000000000000000A00000000000041091776                                                                             
DD1930255518800000078697662EXEBIO SANTA CRUZ FABIAN PAUL           PMARZO                        2022030420220331000000000038000000000000000000000000000A00000000000044267967                                                                             
DD1930255518800000090872496FALCON FERNANDEZ IVANA CATALINA         PMARZO                        2022030420220331000000000035000000000000000000000000000A00000000000046252372                                                                             
DD1930255518800000077715418FALCON VARGAS THIAGO JHEREMY            PMARZO                        2022030420220331000000000038000000000000000000000000000A00000000000045469379                                                                             
DD1930255518800000062548141FARIS ORE LIONEL EDUARDO                PMARZO                        2022030420220331000000000038000000000000000000000000000A00000000000044920014                                                                             
DD1930255518800000090390544FELIX MONZON ROSARIO MARGIOV            PMARZO                        2022030420220331000000000035000000000000000000000000000A00000000000000000000                                                                             
DD1930255518800000078428550FERNANDEZ ARIAS PRISCILLA XIMENA        PMARZO                        2022030420220331000000000038000000000000000000000000000A00000000000046307611                                                                             
DD1930255518800000081202483FERNANDEZ BOHORQUEZ FABIANA ALESSANDRA  PMARZO                        2022030420220331000000000038000000000000000000000000000A00000000000048151979                                                                             
DD1930255518800000077843129FERNANDEZ CRISOSTOMO ANGHELA MIA        PMARZO                        2022030420220331000000000038000000000000000000000000000A00000000000009720798                                                                             
DD1930255518800000076499660FERNANDEZ CRISOSTOMO ETHEL GISELL       PMARZO                        2022030420220331000000000038000000000000000000000000000A00000000000009720798                                                                             
DD1930255518800000062663978FERNANDEZ YALE KATLINE JEYME            PMARZO                        2022030420220331000000000038000000000000000000000000000A00000000000010526868                                                                             
DD1930255518800000091028701FIGUEROA FERNANDEZ CAMILA NARGUES       PMARZO                        2022030420220331000000000035000000000000000000000000000A00000000000046268125                                                                             
DD1930255518800000079988813FLORES BARRERA ZOEY VALENTINA           PMARZO                        2022030420220331000000000035000000000000000000000000000A00000000000076285275                                                                             
DD1930255518800000079825369FLORES BARRON MATIAS EDUARDO            PMARZO                        2022030420220331000000000035000000000000000000000000000A00000000000040590113                                                                             
DD1930255518800000081497046FLORES CUETO FABIO MANUEL               PMARZO                        2022030420220331000000000038000000000000000000000000000A00000000000045900901                                                                             
DD1930255518800000062712584FLORES FARFAN DAIANA NAOMI              PMARZO                        2022030420220331000000000038000000000000000000000000000A00000000000045947833                                                                             
DD1930255518800000075632769FLORES FLORES CAMILA ORIANA             PMARZO                        2022030420220331000000000038000000000000000000000000000A00000000000044354331                                                                             
DD1930255518800000077110673FLORES GARZON CIELO MASSIEL             PMARZO                        2022030420220331000000000038000000000000000000000000000A00000000000009702760                                                                             
DD1930255518800000078079917FLORES MOTTA LUZ ABIGAIL                PMARZO                        2022030420220331000000000038000000000000000000000000000A00000000000044849694                                                                             
DD1930255518800000078119829FLORES MUNOA GONZALO ALONSO             PMARZO                        2022030420220331000000000038000000000000000000000000000A00000000000042746533                                                                             
DD1930255518800000078248268FLORES OSORIO VALENTIN ALEJANDRO        PMARZO                        2022030420220331000000000038000000000000000000000000000A00000000000045000220                                                                             
DD1930255518800000079588685FLORES RIVAS MATHIAS BENJAMIN           PMARZO                        2022030420220331000000000038000000000000000000000000000A00000000000010078424                                                                             
DD1930255518800000062523344FLORES ROMERO MIA NICOLE                PMARZO                        2022030420220331000000000038000000000000000000000000000A00000000000044613371                                                                             
DD1930255518800000077618931GABONAL CASTILLO ANDRE GABRIEL          PMARZO                        2022030420220331000000000038000000000000000000000000000A00000000000042066822                                                                             
DD1930255518800000090075877GABRIEL HUARCAYA VALENTINA MARISOL      PMARZO                        2022030420220331000000000035000000000000000000000000000A00000000000045311727                                                                             
DD1930255518800000090263685GALVEZ RODRIGUEZ JOSUE ANDRE            PMARZO                        2022030420220331000000000035000000000000000000000000000A00000000000040743637                                                                             
DD1930255518800000078568686GALVEZ RODRIGUEZ MIA FERNANDA           PMARZO                        2022030420220331000000000038000000000000000000000000000A00000000000040743637                                                                             
DD1930255518800000074346141GAMARRA VILLANUEVA JOAQUIN ALEXANDER TOMPMARZO                        2022030420220331000000000038000000000000000000000000000A00000000000025748848                                                                             
DD1930255518800000090500733GARCES LARA GAEL SEBASTIAN              PMARZO                        2022030420220331000000000035000000000000000000000000000A00000000000047171447                                                                             
DD1930255518800000078606401GARCIA CASTRO DARIED RAFAEL             PMARZO                        2022030420220331000000000038000000000000000000000000000A00000000000010089045                                                                             
DD1930255518800000078893162GARCIA HUAMAN ALESSANDRA XIMENA         PMARZO                        2022030420220331000000000038000000000000000000000000000A00000000000024004546                                                                             
DD1930255518800000077547915GARCIA MUNANTE ANDERS JOHNER            PMARZO                        2022030420220331000000000038000000000000000000000000000A00000000000010868918                                                                             
DD1930255518800000077890941GARCIA URIBE CAMILA LUHANA              PMARZO                        2022030420220331000000000038000000000000000000000000000A00000000000042934355                                                                             
DD1930255518800000078924720GARIZA CABRERA GABRIEL JASIELTH         PMARZO                        2022030420220331000000000038000000000000000000000000000A00000000000044628443                                                                             
DD1930255518800000076898700GAZANI BAZAN IAN LEONARDO               PMARZO                        2022030420220331000000000038000000000000000000000000000A00000000000040898631                                                                             
DD1930255518800000077586026GIL ARANA NICOLE ROSA                   PMARZO                        2022030420220331000000000038000000000000000000000000000A00000000000009266513                                                                             
DD1930255518800000079368635GIRALDO CASTILLO VALESKA XIMENA         PMARZO                        2022030420220331000000000038000000000000000000000000000A00000000000044643569                                                                             
DD1930255518800000081515070GOICOCHEA ANDIA EMILY PEYTON            PMARZO                        2022030420220331000000000038000000000000000000000000000A00000000000041606935                                                                             
DD1930255518800000077857826GOMEZ FERNANDEZ MARIO MATIAS            PMARZO                        2022030420220331000000000038000000000000000000000000000A00000000000047428618                                                                             
DD1930255518800000077188723GOMEZ PILLCO VANIA LUCIANA              PMARZO                        2022030420220331000000000038000000000000000000000000000A00000000000043537418                                                                             
DD1930255518800000078700469GONZALES ALARCON EDRICK HERNAN          PMARZO                        2022030420220331000000000038000000000000000000000000000A00000000000045912062                                                                             
DD1930255518800000078247688GONZALES HUAROC RANDA VALESHKA          PMARZO                        2022030420220331000000000038000000000000000000000000000A00000000000045114492                                                                             
DD1930255518800000077008338GONZALES VALVERDE DASHA JADE ANTUANNETT PMARZO                        2022030420220331000000000038000000000000000000000000000A00000000000009612321                                                                             
DD1930255518800000078313110GRILLO CORAL LUZ MARIA                  PMARZO                        2022030420220331000000000038000000000000000000000000000A00000000000047541401                                                                             
DD1930255518800000079843073GUERRA POZO EMIR LUAN                   PMARZO                        2022030420220331000000000035000000000000000000000000000A00000000000043731172                                                                             
DD1930255518800000077442524GUERRA POZO JUAN LUIS                   PMARZO                        2022030420220331000000000038000000000000000000000000000A00000000000043731172                                                                             
DD1930255518800000077947958GUERRERA POMA FABRIZIOPAOLO             PMARZO                        2022030420220331000000000038000000000000000000000000000A00000000000047162742                                                                             
DD1930255518800000078428082GUERRERO LEIVA ALONDRA ESTRELLA         PMARZO                        2022030420220331000000000038000000000000000000000000000A00000000000008882220                                                                             
DD1930255518800000062946430GUERREROS VERA ALIT PAOLA               PMARZO                        2022030420220331000000000038000000000000000000000000000A00000000000040123971                                                                             
DD1930255518800000078120961GUEVARA CUEVA AYELEN LEONELA            PMARZO                        2022030420220331000000000038000000000000000000000000000A00000000000040212017                                                                             
DD1930255518800000081515275GUEVARA CUEVA STEFANO LEANDRO           PMARZO                        2022030420220331000000000038000000000000000000000000000A00000000000040212017                                                                             
DD1930255518800000077251436GUEVARA TERRONES AIXA JHULIET           PMARZO                        2022030420220331000000000038000000000000000000000000000A00000000000027430687                                                                             
DD1930255518800000090740618GUILLEN LINDO ELIZABETH                 PMARZO                        2022030420220331000000000035000000000000000000000000000A00000000000044240829                                                                             
DD1930255518800000076894752GUTIERREZ HINOSTROZA KAELA ROSE         PMARZO                        2022030420220331000000000038000000000000000000000000000A00000000000042833026                                                                             
DD1930255518800000081242250GUTIERREZ LEIVA ANDREA YESVANNY         PMARZO                        2022030420220331000000000038000000000000000000000000000A00000000000010100047                                                                             
DD1930255518800000078354359GUZMAN AGUILAR THIAGO SEBASTIAM         PMARZO                        2022030420220331000000000038000000000000000000000000000A00000000000044430253                                                                             
DD1930255518800000077396507GUZMAN GAMBOA JEAN PIERO STPHEANO       PMARZO                        2022030420220331000000000038000000000000000000000000000A00000000000040651424                                                                             
DD1930255518800000078491854GUZMAN LLALLAHUI GABRIEL VALENTINO      PMARZO                        2022030420220331000000000038000000000000000000000000000A00000000000042984526                                                                             
DD1930255518800000090324598HANCCO FERNANDEZ IAN RAZIEL ENRIQUE     PMARZO                        2022030420220331000000000035000000000000000000000000000A00000000000046330806                                                                             
DD1930255518800000078553137HARO LEGUIA AARON GADIEL                PMARZO                        2022030420220331000000000038000000000000000000000000000A00000000000043248883                                                                             
DD1930255518800000074797071HEREDIA CHUQUIMIA JOAQUIN RAUL          PMARZO                        2022030420220331000000000038000000000000000000000000000A00000000000041014229                                                                             
DD1930255518800000091050262HERNANDEZ CCAHUANA VALENTINA LUCIANA    PMARZO                        2022030420220331000000000035000000000000000000000000000A00000000000042697796                                                                             
DD1930255518800000079684505HERNANDEZ LUQUE FABRICIO ALEJANDRO      PMARZO                        2022030420220331000000000035000000000000000000000000000A00000000000042996038                                                                             
DD1930255518800000078447631HERRERA RODRIGUEZ THIAGO CALEB          PMARZO                        2022030420220331000000000038000000000000000000000000000A00000000000042284947                                                                             
DD1930255518800000079370484HINOJOSA RODRIGUEZ LETIZIA ANTOINETTE   PMARZO                        2022030420220331000000000038000000000000000000000000000A00000000000041904985                                                                             
DD1930255518800000078779789HINOSTROZA YACARINI MICHELLE SHEREZADE  PMARZO                        2022030420220331000000000038000000000000000000000000000A00000000000009710459                                                                             
DD1930255518800000091168002HUAINA BENITES JOAQUIN FERNANDO         PMARZO                        2022030420220331000000000035000000000000000000000000000A00000000000040041087                                                                             
DD1930255518800000081525523HUAMAN ACHARTE VALENTINA SOFIA          PMARZO                        2022030420220331000000000035000000000000000000000000000A00000000000047727571                                                                             
DD1930255518800000079308395HUAMAN BRAUL JARED PATRICK              PMARZO                        2022030420220331000000000038000000000000000000000000000A00000000000041681383                                                                             
DD1930255518800000078258702HUAMAN MALPARTIDA LEANDRO ANTONIO       PMARZO                        2022030420220331000000000038000000000000000000000000000A00000000000010525405                                                                             
DD1930255518800000078535493HUAMAN QUINONES LEYTO SEBASTIAN         PMARZO                        2022030420220331000000000038000000000000000000000000000A00000000000046259706                                                                             
DD1930255518800000078913556HUAMANI MIRANDA NATALIA SOPHIA ALESSANDRPMARZO                        2022030420220331000000000038000000000000000000000000000A00000000000040603186                                                                             
DD1930255518800000074190684HUAMANI PRADA LUCIANA AMPARO            PMARZO                        2022030420220331000000000038000000000000000000000000000A00000000000044890040                                                                             
DD1930255518800000090254076HUAMANI QUISPE KAHELA FERNANDA          PMARZO                        2022030420220331000000000035000000000000000000000000000A00000000000048695753                                                                             
DD1930255518800000079792053HUARACA GONZALES JOSHUA MIGUEL          PMARZO                        2022030420220331000000000035000000000000000000000000000A00000000000045485712                                                                             
DD1930255518800000074273259HUARINGA ALVAREZ EDGAR                  PMARZO                        2022030420220331000000000038000000000000000000000000000A00000000000000000000                                                                             
DD1930255518800000063502039HUARINGA BORJA SOFIA ABIGAIL            PMARZO                        2022030420220331000000000038000000000000000000000000000A00000000000045268954                                                                             
DD1930255518800000090779860HUARINGA VILLALOBOS LIAM MOISES         PMARZO                        2022030420220331000000000035000000000000000000000000000A00000000000045666405                                                                             
DD1930255518800000081172545HUAYLINOS CUEVA DIEGO ANTONIO           PMARZO                        2022030420220331000000000038000000000000000000000000000A00000000000019870342                                                                             
DD1930255518800000075037611HUAYTALLA MORENO MARIOT PILAR           PMARZO                        2022030420220331000000000038000000000000000000000000000A00000000000009410649                                                                             
DD1930255518800000074345798HUILLCA CALDERON LUIS ALESSANDRO        PMARZO                        2022030420220331000000000038000000000000000000000000000A00000000000016128131                                                                             
DD1930255518800000077522258HURTADO CASELLA ALESSANDRO STEFANO SPENCPMARZO                        2022030420220331000000000038000000000000000000000000000A00000000000009710998                                                                             
DD1930255518800000079702480HURTADO VALERIANO IVANNA CIELO          PMARZO                        2022030420220331000000000035000000000000000000000000000A00000000000010148708                                                                             
DD1930255518800000079244588IBANEZ FIGUEROA MATEO BENJAMIN          PMARZO                        2022030420220331000000000038000000000000000000000000000A00000000000043978095                                                                             
DD1930255518800000078207437IGONO MEGO JOSE EMANUEL                 PMARZO                        2022030420220331000000000038000000000000000000000000000A00000000000040092860                                                                             
DD1930255518800000090295031IKEDA PEREZ ADRIANO ALESSIO             PMARZO                        2022030420220331000000000035000000000000000000000000000A00000000000041954486                                                                             
DD1930255518800000090463153INGA GIRONDA SANTIAGO GIANLUCCA         PMARZO                        2022030420220331000000000035000000000000000000000000000A00000000000073708563                                                                             
DD1930255518800000090304063INGA REYNOSO JUAN SALVADOR              PMARZO                        2022030420220331000000000035000000000000000000000000000A00000000000048236271                                                                             
DD1930255518800000077958193INGA REYNOSO YORDAN ABYEL               PMARZO                        2022030420220331000000000038000000000000000000000000000A00000000000048236271                                                                             
DD1930255518800000079062712INGAROCA JAUREGUI FABIANNA VALENTINA    PMARZO                        2022030420220331000000000038000000000000000000000000000A00000000000009720788                                                                             
DD1930255518800000090124684INGARUCA POMA VALERIA NICKOLL           PMARZO                        2022030420220331000000000035000000000000000000000000000A00000000000042489575                                                                             
DD1930255518800000078478658INOCENTE GONZALES MIJAEL LEONI          PMARZO                        2022030420220331000000000038000000000000000000000000000A00000000000045478091                                                                             
DD1930255518800000090394056IPARRAGUIRRE ESPINOZA BENJAMIN STEFAN   PMARZO                        2022030420220331000000000035000000000000000000000000000A00000000000074609559                                                                             
DD1930255518800000078584555IZARRA MENDOZA PIERO ALESSANDRO         PMARZO                        2022030420220331000000000038000000000000000000000000000A00000000000040015240                                                                             
DD1930255518800000077515060JANAMPA LAZO SEBASTIAN ANDRE            PMARZO                        2022030420220331000000000038000000000000000000000000000A00000000000009889441                                                                             
DD1930255518800000077553846JANAMPA PALOMINO JOSE LUIS LEE          PMARZO                        2022030420220331000000000038000000000000000000000000000A00000000000010647252                                                                             
DD1930255518800000079296151JANAMPA PALOMINO LIA DE LOS ANGELES LEE PMARZO                        2022030420220331000000000038000000000000000000000000000A00000000000010647252                                                                             
DD1930255518800000063502083JARA QUISPE DACNE MELANIE               PMARZO                        2022030420220331000000000038000000000000000000000000000A00000000000044075846                                                                             
DD1930255518800000077888790JAUREGUI CUZCANO DASHA TAHIS            PMARZO                        2022030420220331000000000038000000000000000000000000000A00000000000009721565                                                                             
DD1930255518800000074507824JAVIER ORTIZ JORGE LUIS MANUEL          PMARZO                        2022030420220331000000000038000000000000000000000000000A00000000000044127358                                                                             
DD1930255518800000077632125JIMENEZ CALCINA FRANCO LEANDRO FELIX    PMARZO                        2022030420220331000000000038000000000000000000000000000A00000000000009262142                                                                             
DD1930255518800000090713855JUAREZ CASTILLO JAIR JESUS              PMARZO                        2022030420220331000000000035000000000000000000000000000A00000000000042066822                                                                             
DD1930255518800000062221903JUAREZ IGLESIAS ANDREA JULIETH          PMARZO                        2022030420220331000000000038000000000000000000000000000A00000000000042499505                                                                             
DD1930255518800000081663647JUAREZ RODRIGUEZ FABRIZIO VALENTINO     PMARZO                        2022030420220331000000000038000000000000000000000000000A00000000000047765602                                                                             
DD1930255518800000078253472JULON VASQUEZ ADRIANO                   PMARZO                        2022030420220331000000000038000000000000000000000000000A00000000000027290951                                                                             
DD1930255518800000077406952KUSAKA BERNUY DAVID AMADO               PMARZO                        2022030420220331000000000038000000000000000000000000000A00000000000046266857                                                                             
DD1930255518800000081015836LANDA POCHORI TAKGU ANGELO              PMARZO                        2022030420220331000000000038000000000000000000000000000A00000000000040000862                                                                             
DD1930255518800000077578001LARA BELTRAN GABRIELA SOFIA             PMARZO                        2022030420220331000000000038000000000000000000000000000A00000000000072866742                                                                             
DD1930255518800000078212428LARA BELTRAN LUCIANA RUTH ALEJANDRA     PMARZO                        2022030420220331000000000038000000000000000000000000000A00000000000072866742                                                                             
DD1930255518800000091069729LARA BELTRAN SAYUMI ISABEL TRINIDAD     PMARZO                        2022030420220331000000000035000000000000000000000000000A00000000000072866742                                                                             
DD1930255518800000077406806LARA CONDORI LUIS ARTURO                PMARZO                        2022030420220331000000000038000000000000000000000000000A00000000000042866742                                                                             
DD1930255518800000077561954LARA MERINO MAYTE FERNANDA              PMARZO                        2022030420220331000000000038000000000000000000000000000A00000000000042612375                                                                             
DD1930255518800000079948721LAUPA ARRIETA LUEN ABDIEL OSWALDO       PMARZO                        2022030420220331000000000035000000000000000000000000000A00000000000074444986                                                                             
DD1930255518800000090713308LAUREANO ROJAS GAEL FRANCISCO           PMARZO                        2022030420220331000000000035000000000000000000000000000A00000000000046377252                                                                             
DD1930255518800000078036005LAVADO TAIPE VALENTINA JANDY            PMARZO                        2022030420220331000000000038000000000000000000000000000A00000000000044057647                                                                             
DD1930255518800000078629248LEGUIA CASTRO DIDIER STEFANO            PMARZO                        2022030420220331000000000038000000000000000000000000000A00000000000042283969                                                                             
DD1930255518800000078878631LEGUIA CASTRO LIAM                      PMARZO                        2022030420220331000000000038000000000000000000000000000A00000000000042283969                                                                             
DD1930255518800000077825596LEMOS HERRERA FABRIZIO FERNANDO         PMARZO                        2022030420220331000000000038000000000000000000000000000A00000000000010083432                                                                             
DD1930255518800000078833277LEON SANCHEZ PATRICIA ALEXANDRA         PMARZO                        2022030420220331000000000038000000000000000000000000000A00000000000044152755                                                                             
DD1930255518800000078147290LEVANO QUISPE NIKOLAS ANDRE             PMARZO                        2022030420220331000000000038000000000000000000000000000A00000000000043521985                                                                             
DD1930255518800000081550995LICAS FERNANDEZ FERNANDA LUCIANA        PMARZO                        2022030420220331000000000038000000000000000000000000000A00000000000000000000                                                                             
DD1930255518800000074525417LINARES PALOMINO MARIA JOSE             PMARZO                        2022030420220331000000000038000000000000000000000000000A00000000000010095456                                                                             
DD1930255518800000077265970LINARES VIDALON VICTOR HUGO             PMARZO                        2022030420220331000000000038000000000000000000000000000A00000000000010084873                                                                             
DD1930255518800000077850357LLACSAHUANGA CALCINA SIDNEY JAMILA ITCELPMARZO                        2022030420220331000000000038000000000000000000000000000A00000000000046793693                                                                             
DD1930255518800000079362227LLAMOSA TORRES MACARENA LORENA          PMARZO                        2022030420220331000000000038000000000000000000000000000A00000000000047481728                                                                             
DD1930255518800000077252582LLANCARI COCHACHI LUCAS ANTONIO         PMARZO                        2022030420220331000000000038000000000000000000000000000A00000000000046491706                                                                             
DD1930255518800000078806993LLANCARI COCHACHI RAFAELA               PMARZO                        2022030420220331000000000038000000000000000000000000000A00000000000046491706                                                                             
DD1930255518800000078616307LLANOS MOLINA ABEL MATHIAS              PMARZO                        2022030420220331000000000038000000000000000000000000000A00000000000047541158                                                                             
DD1930255518800000079221008LLANOS MOLINA VALENTINO NICOLAS         PMARZO                        2022030420220331000000000038000000000000000000000000000A00000000000047541158                                                                             
DD1930255518800000079910496LLANOS VARONA STEPHANO FERNANDO         PMARZO                        2022030420220331000000000035000000000000000000000000000A00000000000076701314                                                                             
DD1930255518800000078584943LLIMPI ROMERO JOAQUIN GAEL              PMARZO                        2022030420220331000000000038000000000000000000000000000A00000000000010528811                                                                             
DD1930255518800000078054673LLIUYACC BERNACHE JEZABEL HAZIEL        PMARZO                        2022030420220331000000000038000000000000000000000000000A00000000000047301719                                                                             
DD1930255518800000074196171LLOSA QUISPE PIEROALEXANDER             PMARZO                        2022030420220331000000000038000000000000000000000000000A00000000000009719476                                                                             
DD1930255518800000078315042LOAYZA QUISPE ADRIANO SEBASTIAN         PMARZO                        2022030420220331000000000038000000000000000000000000000A00000000000010085356                                                                             
DD1930255518800000079582677LOPEZ CARRASCO ALISSON ANDREA           PMARZO                        2022030420220331000000000038000000000000000000000000000A00000000000042409229                                                                             
DD1930255518800000078096918LOPEZ DE LA BARRA ENZO ANDRE            PMARZO                        2022030420220331000000000038000000000000000000000000000A00000000000047356564                                                                             
DD1930255518800000090854514LOPEZ MARTINEZ VALENTINA MEDALY TABITA  PMARZO                        2022030420220331000000000035000000000000000000000000000A00000000000046794260                                                                             
DD1930255518800000076890908LOPEZ PONCE DASHLY BRIANNA TEODORA      PMARZO                        2022030420220331000000000038000000000000000000000000000A00000000000080639637                                                                             
DD1930255518800000078384858LOPEZ PONCE ESNAIDER MIGUEL SCHMELZER   PMARZO                        2022030420220331000000000038000000000000000000000000000A00000000000080639637                                                                             
DD1930255518800000075645078LOPEZ VILLACORTA DERECK MARCELO ANDRES  PMARZO                        2022030420220331000000000038000000000000000000000000000A00000000000007116794                                                                             
DD1930255518800000090996395LOPEZ YALE KRISTEL ROSE                 PMARZO                        2022030420220331000000000035000000000000000000000000000A00000000000008885372                                                                             
DD1930255518800000090327695LUJAN SOLOGUREN VALESKA LIZETH          PMARZO                        2022030420220331000000000035000000000000000000000000000A00000000000010526451                                                                             
DD1930255518800000074261623LUNAREJO GARRIAZO MARIEL XIMENA         PMARZO                        2022030420220331000000000038000000000000000000000000000A00000000000041427387                                                                             
DD1930255518800000077737248LUYO SOSA NICOLAS HAZIEL                PMARZO                        2022030420220331000000000038000000000000000000000000000A00000000000010525689                                                                             
DD1930255518800000077193898MACEDO MOZOMBITE ASHLEY GRISSEL         PMARZO                        2022030420220331000000000038000000000000000000000000000A00000000000071610900                                                                             
DD1930255518800000077835461MACHAHUA MALDONADO CALEB AURELIO        PMARZO                        2022030420220331000000000038000000000000000000000000000A00000000000042550851                                                                             
DD1930255518800000090053669MACHAHUA MALDONADO JOSUE LEANDRO        PMARZO                        2022030420220331000000000035000000000000000000000000000A00000000000044700096                                                                             
DD1930255518800000078066363MACHUCA PAREDES SEBASTIAN               PMARZO                        2022030420220331000000000038000000000000000000000000000A00000000000040345379                                                                             
DD1930255518800000078146527MACUTELA TORRES AMY TINKERBELL          PMARZO                        2022030420220331000000000038000000000000000000000000000A00000000000010089381                                                                             
DD1930255518800000081515678MALCA BENAVIDES BENJAMIN SANTIAGO       PMARZO                        2022030420220331000000000038000000000000000000000000000A00000000000072568910                                                                             
DD1930255518800000091159558MALLMA ALVAREZ CLAUDIA FERNANDA         PMARZO                        2022030420220331000000000035000000000000000000000000000A00000000000070030527                                                                             
DD1930255518800000074194561MANTILLA QUISPE PATRICK ADRIANO         PMARZO                        2022030420220331000000000038000000000000000000000000000A00000000000046869913                                                                             
DD1930255518800000081668023MANTURANO VEGA ADRIANA NICOLE           PMARZO                        2022030420220331000000000038000000000000000000000000000A00000000000000823591                                                                             
DD1930255518800000078324948MARCA ESCALANTE DHANNA                  PMARZO                        2022030420220331000000000038000000000000000000000000000A00000000000047909495                                                                             
DD1930255518800000077187609MARIN ESPINOZA ALANIS LIESEL            PMARZO                        2022030420220331000000000038000000000000000000000000000A00000000000010708947                                                                             
DD1930255518800000078335210MARIN ESPINOZA ALEJANDRA MELISSA        PMARZO                        2022030420220331000000000038000000000000000000000000000A00000000000010708947                                                                             
DD1930255518800000090945213MARIN ORTIZ LUCCA ENZO                  PMARZO                        2022030420220331000000000035000000000000000000000000000A00000000000044887683                                                                             
DD1930255518800000076889887MARISCAL GALINDO KHRYSBEL GUADALUPE     PMARZO                        2022030420220331000000000038000000000000000000000000000A00000000000040206207                                                                             
DD1930255518800000063079566MARTINEZ ANDONAYRE CIELO ARIADNA        PMARZO                        2022030420220331000000000038000000000000000000000000000A00000000000046307579                                                                             
DD1930255518800000076115806MARTINEZ DE PABLO MARIA LUCIA           PMARZO                        2022030420220331000000000038000000000000000000000000000A00000000000000135137                                                                             
DD1930255518800000090428056MARTINEZ RAMIREZ ALEJANDRA SOPHIA       PMARZO                        2022030420220331000000000035000000000000000000000000000A00000000000041900027                                                                             
DD1930255518800000078397076MARTINEZ VIERA AARON FERNANDO           PMARZO                        2022030420220331000000000038000000000000000000000000000A00000000000042580422                                                                             
DD1930255518800000076887368MATTA PORTOCARRERO RODRIGO              PMARZO                        2022030420220331000000000038000000000000000000000000000A00000000000044335831                                                                             
DD1930255518800000090962625MAURICIO QUISPE RYAN FABIAN             PMARZO                        2022030420220331000000000035000000000000000000000000000A00000000000047473249                                                                             
DD1930255518800000090587891MAYAK SORIANO DANNA MAILEN              PMARZO                        2022030420220331000000000035000000000000000000000000000A00000000000044688036                                                                             
DD1930255518800000090416715MAYHUA AGUIRRE LYANNA ARLETH            PMARZO                        2022030420220331000000000035000000000000000000000000000A00000000000045349554                                                                             
DD1930255518800000079902000MECHAN LAZARO MATHIAS ALONSO            PMARZO                        2022030420220331000000000035000000000000000000000000000A00000000000041580766                                                                             
DD1930255518800000078394841MEDINA ARIAS RICARDO JESUS              PMARZO                        2022030420220331000000000038000000000000000000000000000A00000000000010790828                                                                             
DD1930255518800000077930042MEDINA INOCENTE JAYCO ANGELO            PMARZO                        2022030420220331000000000038000000000000000000000000000A00000000000046637760                                                                             
