CC19302555188CCORPORACION EDUCATIVA COLEGIO MARIANISTA20220310000000016000000000574000A000000                                                                                                                                                             
DD1930255518800000090482769ALARCON ALZAMORA ENZO GAEL              PMARZO                        2022031020220331000000000035000000000000000000000000000E00000000000043686396                                                                             
DD1930255518800000090482769ALARCON ALZAMORA ENZO GAEL              PABRIL                        2022031020220430000000000035000000000000000000000000000E00000000000043686396                                                                             
DD1930255518800000078708228ALARCON ALZAMORA PATRICK MARIANO        PMARZO                        2022031020220331000000000038000000000000000000000000000E00000000000043686396                                                                             
DD1930255518800000078708228ALARCON ALZAMORA PATRICK MARIANO        PABRIL                        2022031020220430000000000038000000000000000000000000000E00000000000043686396                                                                             
DD1930255518800000074346141GAMARRA VILLANUEVA JOAQUIN ALEXANDER TOMPMARZO                        2022031020220331000000000038000000000000000000000000000E00000000000025748848                                                                             
DD1930255518800000081515678MALCA BENAVIDES BENJAMIN SANTIAGO       PMARZO                        2022031020220331000000000038000000000000000000000000000E00000000000072568910                                                                             
DD1930255518800000078043499RAMOS VALES ENRIQUE FABIAN              PMARZO                        2022031020220331000000000035200000000000000000000000000E00000000000009898292                                                                             
DD1930255518800000078043499RAMOS VALES ENRIQUE FABIAN              PABRIL                        2022031020220430000000000035200000000000000000000000000E00000000000009898292                                                                             
DD1930255518800000078043499RAMOS VALES ENRIQUE FABIAN              PMAYO                         2022031020220531000000000035200000000000000000000000000E00000000000009898292                                                                             
DD1930255518800000078043499RAMOS VALES ENRIQUE FABIAN              PJUNIO                        2022031020220630000000000035200000000000000000000000000E00000000000009898292                                                                             
DD1930255518800000078043499RAMOS VALES ENRIQUE FABIAN              PJULIO                        2022031020220731000000000035200000000000000000000000000E00000000000009898292                                                                             
DD1930255518800000078043499RAMOS VALES ENRIQUE FABIAN              PAGOSTO                       2022031020220831000000000035200000000000000000000000000E00000000000009898292                                                                             
DD1930255518800000078043499RAMOS VALES ENRIQUE FABIAN              PSETIEMBRE                    2022031020220930000000000035200000000000000000000000000E00000000000009898292                                                                             
DD1930255518800000078043499RAMOS VALES ENRIQUE FABIAN              POCTUBRE                      2022031020221031000000000035200000000000000000000000000E00000000000009898292                                                                             
DD1930255518800000078043499RAMOS VALES ENRIQUE FABIAN              PNOVIEMBRE                    2022031020221130000000000035200000000000000000000000000E00000000000009898292                                                                             
DD1930255518800000078043499RAMOS VALES ENRIQUE FABIAN              PDICIEMBRE                    2022031020221231000000000035200000000000000000000000000E00000000000009898292                                                                             
